{
  "abi": [
    {
      "type": "constructor",
      "inputs": [
        {
          "name": "collateralToken",
          "type": "address",
          "internalType": "address"
        },
        {
          "name": "lendToken",
          "type": "address",
          "internalType": "address"
        },
        {
          "name": "lpToken",
          "type": "address",
          "internalType": "address"
        }
      ],
      "stateMutability": "nonpayable"
    },
    {
      "type": "function",
      "name": "depositCollateral",
      "inputs": [
        {
          "name": "amount",
          "type": "uint256",
          "internalType": "uint256"
        }
      ],
      "outputs": [],
      "stateMutability": "nonpayable"
    },
    {
      "type": "function",
      "name": "getCollateralFactor",
      "inputs": [],
      "outputs": [
        {
          "name": "",
          "type": "uint256",
          "internalType": "uint256"
        }
      ],
      "stateMutability": "pure"
    },
    {
      "type": "function",
      "name": "getInterestRate",
      "inputs": [],
      "outputs": [
        {
          "name": "",
          "type": "uint256",
          "internalType": "uint256"
        }
      ],
      "stateMutability": "pure"
    },
    {
      "type": "function",
      "name": "getTotalLiquidity",
      "inputs": [],
      "outputs": [
        {
          "name": "",
          "type": "uint256",
          "internalType": "uint256"
        }
      ],
      "stateMutability": "view"
    },
    {
      "type": "function",
      "name": "getUserCollateral",
      "inputs": [
        {
          "name": "user",
          "type": "address",
          "internalType": "address"
        }
      ],
      "outputs": [
        {
          "name": "",
          "type": "uint256",
          "internalType": "uint256"
        }
      ],
      "stateMutability": "view"
    },
    {
      "type": "function",
      "name": "getUserLiquidity",
      "inputs": [
        {
          "name": "user",
          "type": "address",
          "internalType": "address"
        }
      ],
      "outputs": [
        {
          "name": "",
          "type": "uint256",
          "internalType": "uint256"
        }
      ],
      "stateMutability": "view"
    },
    {
      "type": "function",
      "name": "getUserLoan",
      "inputs": [
        {
          "name": "user",
          "type": "address",
          "internalType": "address"
        },
        {
          "name": "loanId",
          "type": "uint256",
          "internalType": "uint256"
        }
      ],
      "outputs": [
        {
          "name": "startTime",
          "type": "uint256",
          "internalType": "uint256"
        },
        {
          "name": "amount",
          "type": "uint256",
          "internalType": "uint256"
        },
        {
          "name": "collateral",
          "type": "uint256",
          "internalType": "uint256"
        },
        {
          "name": "isActive",
          "type": "bool",
          "internalType": "bool"
        }
      ],
      "stateMutability": "view"
    },
    {
      "type": "function",
      "name": "getUserLoanCount",
      "inputs": [
        {
          "name": "user",
          "type": "address",
          "internalType": "address"
        }
      ],
      "outputs": [
        {
          "name": "",
          "type": "uint256",
          "internalType": "uint256"
        }
      ],
      "stateMutability": "view"
    },
    {
      "type": "function",
      "name": "i_collateralFactor",
      "inputs": [],
      "outputs": [
        {
          "name": "",
          "type": "uint256",
          "internalType": "uint256"
        }
      ],
      "stateMutability": "view"
    },
    {
      "type": "function",
      "name": "i_collateralToken",
      "inputs": [],
      "outputs": [
        {
          "name": "",
          "type": "address",
          "internalType": "contract IERC20"
        }
      ],
      "stateMutability": "view"
    },
    {
      "type": "function",
      "name": "i_interestRate",
      "inputs": [],
      "outputs": [
        {
          "name": "",
          "type": "uint256",
          "internalType": "uint256"
        }
      ],
      "stateMutability": "view"
    },
    {
      "type": "function",
      "name": "i_lendToken",
      "inputs": [],
      "outputs": [
        {
          "name": "",
          "type": "address",
          "internalType": "contract IERC20"
        }
      ],
      "stateMutability": "view"
    },
    {
      "type": "function",
      "name": "i_lpToken",
      "inputs": [],
      "outputs": [
        {
          "name": "",
          "type": "address",
          "internalType": "contract LPToken"
        }
      ],
      "stateMutability": "view"
    },
    {
      "type": "function",
      "name": "provideLiquidity",
      "inputs": [
        {
          "name": "amount",
          "type": "uint256",
          "internalType": "uint256"
        }
      ],
      "outputs": [],
      "stateMutability": "nonpayable"
    },
    {
      "type": "function",
      "name": "repayLoan",
      "inputs": [
        {
          "name": "loanId",
          "type": "uint256",
          "internalType": "uint256"
        }
      ],
      "outputs": [],
      "stateMutability": "nonpayable"
    },
    {
      "type": "function",
      "name": "s_totalLiquidity",
      "inputs": [],
      "outputs": [
        {
          "name": "",
          "type": "uint256",
          "internalType": "uint256"
        }
      ],
      "stateMutability": "view"
    },
    {
      "type": "function",
      "name": "takeLoan",
      "inputs": [
        {
          "name": "amount",
          "type": "uint256",
          "internalType": "uint256"
        }
      ],
      "outputs": [],
      "stateMutability": "nonpayable"
    },
    {
      "type": "function",
      "name": "userCollateral",
      "inputs": [
        {
          "name": "",
          "type": "address",
          "internalType": "address"
        }
      ],
      "outputs": [
        {
          "name": "",
          "type": "uint256",
          "internalType": "uint256"
        }
      ],
      "stateMutability": "view"
    },
    {
      "type": "function",
      "name": "userLiquidity",
      "inputs": [
        {
          "name": "",
          "type": "address",
          "internalType": "address"
        }
      ],
      "outputs": [
        {
          "name": "",
          "type": "uint256",
          "internalType": "uint256"
        }
      ],
      "stateMutability": "view"
    },
    {
      "type": "function",
      "name": "userLoanCount",
      "inputs": [
        {
          "name": "",
          "type": "address",
          "internalType": "address"
        }
      ],
      "outputs": [
        {
          "name": "",
          "type": "uint256",
          "internalType": "uint256"
        }
      ],
      "stateMutability": "view"
    },
    {
      "type": "function",
      "name": "userLoans",
      "inputs": [
        {
          "name": "",
          "type": "address",
          "internalType": "address"
        },
        {
          "name": "",
          "type": "uint256",
          "internalType": "uint256"
        }
      ],
      "outputs": [
        {
          "name": "startTime",
          "type": "uint256",
          "internalType": "uint256"
        },
        {
          "name": "amount",
          "type": "uint256",
          "internalType": "uint256"
        },
        {
          "name": "collateral",
          "type": "uint256",
          "internalType": "uint256"
        },
        {
          "name": "isActive",
          "type": "bool",
          "internalType": "bool"
        }
      ],
      "stateMutability": "view"
    },
    {
      "type": "function",
      "name": "withdrawCollateral",
      "inputs": [
        {
          "name": "amount",
          "type": "uint256",
          "internalType": "uint256"
        }
      ],
      "outputs": [],
      "stateMutability": "nonpayable"
    },
    {
      "type": "function",
      "name": "withdrawLiquidity",
      "inputs": [
        {
          "name": "lpAmount",
          "type": "uint256",
          "internalType": "uint256"
        }
      ],
      "outputs": [],
      "stateMutability": "nonpayable"
    },
    {
      "type": "event",
      "name": "ZKLend__CollateralDeposited",
      "inputs": [
        {
          "name": "user",
          "type": "address",
          "indexed": true,
          "internalType": "address"
        },
        {
          "name": "amount",
          "type": "uint256",
          "indexed": false,
          "internalType": "uint256"
        }
      ],
      "anonymous": false
    },
    {
      "type": "event",
      "name": "ZKLend__CollateralWithdrawn",
      "inputs": [
        {
          "name": "user",
          "type": "address",
          "indexed": true,
          "internalType": "address"
        },
        {
          "name": "amount",
          "type": "uint256",
          "indexed": false,
          "internalType": "uint256"
        }
      ],
      "anonymous": false
    },
    {
      "type": "event",
      "name": "ZKLend__ExceedCollateralFactor",
      "inputs": [
        {
          "name": "user",
          "type": "address",
          "indexed": true,
          "internalType": "address"
        },
        {
          "name": "requested",
          "type": "uint256",
          "indexed": false,
          "internalType": "uint256"
        },
        {
          "name": "maxAllowed",
          "type": "uint256",
          "indexed": false,
          "internalType": "uint256"
        }
      ],
      "anonymous": false
    },
    {
      "type": "event",
      "name": "ZKLend__LiquidityProvided",
      "inputs": [
        {
          "name": "user",
          "type": "address",
          "indexed": true,
          "internalType": "address"
        },
        {
          "name": "amount",
          "type": "uint256",
          "indexed": false,
          "internalType": "uint256"
        }
      ],
      "anonymous": false
    },
    {
      "type": "event",
      "name": "ZKLend__LiquidityWithdrawn",
      "inputs": [
        {
          "name": "user",
          "type": "address",
          "indexed": true,
          "internalType": "address"
        },
        {
          "name": "amount",
          "type": "uint256",
          "indexed": false,
          "internalType": "uint256"
        }
      ],
      "anonymous": false
    },
    {
      "type": "event",
      "name": "ZKLend__LoanRepaid",
      "inputs": [
        {
          "name": "user",
          "type": "address",
          "indexed": true,
          "internalType": "address"
        },
        {
          "name": "amount",
          "type": "uint256",
          "indexed": false,
          "internalType": "uint256"
        }
      ],
      "anonymous": false
    },
    {
      "type": "event",
      "name": "ZKLend__LoanTaken",
      "inputs": [
        {
          "name": "user",
          "type": "address",
          "indexed": true,
          "internalType": "address"
        },
        {
          "name": "amount",
          "type": "uint256",
          "indexed": false,
          "internalType": "uint256"
        },
        {
          "name": "collateral",
          "type": "uint256",
          "indexed": false,
          "internalType": "uint256"
        }
      ],
      "anonymous": false
    }
  ],
  "bytecode": {
    "object": "0x610120604052605a60e090815250600561010090815250348015610021575f5ffd5b5060405161265b38038061265b83398181016040528101906100439190610145565b8273ffffffffffffffffffffffffffffffffffffffff1660808173ffffffffffffffffffffffffffffffffffffffff16815250508173ffffffffffffffffffffffffffffffffffffffff1660a08173ffffffffffffffffffffffffffffffffffffffff16815250508073ffffffffffffffffffffffffffffffffffffffff1660c08173ffffffffffffffffffffffffffffffffffffffff1681525050505050610195565b5f5ffd5b5f73ffffffffffffffffffffffffffffffffffffffff82169050919050565b5f610114826100eb565b9050919050565b6101248161010a565b811461012e575f5ffd5b50565b5f8151905061013f8161011b565b92915050565b5f5f5f6060848603121561015c5761015b6100e7565b5b5f61016986828701610131565b935050602061017a86828701610131565b925050604061018b86828701610131565b9150509250925092565b60805160a05160c05160e051610100516124276102345f395f81816108dd01528181611224015261177101525f8181610860015281816108850152610c9d01525f81816105500152818161063c015281816113fa015281816118b8015261197e01525f81816106c5015281816108b801528181610d9a0152818161127e01526117d801525f8181610ad50152818161146401526114e001526124275ff3fe608060405234801561000f575f5ffd5b506004361061014b575f3560e01c8063af85e1d5116100c1578063d5c059401161007a578063d5c059401461038b578063d8bad5bd146103be578063dbbdd935146103f1578063e32b6d8f14610421578063eb521a4c1461043f578063f69f1e4a1461045b5761014b565b8063af85e1d5146102a3578063b2b0b0bd146102d3578063b6f7132f146102f1578063b71a1bfc14610321578063ba4c28c31461033f578063bad4a01f1461036f5761014b565b80634ffd695e116101135780634ffd695e146101e35780635257b566146102015780636112fe2e1461021f5780638c803fc21461023b578063aa3b686714610257578063ab7b1c89146102875761014b565b80630a861f2a1461014f5780632d2536e71461016b57806335392b711461018957806335c7e925146101a75780634482fa97146101c5575b5f5ffd5b61016960048036038101906101649190611b0e565b61048b565b005b61017361085e565b6040516101809190611b48565b60405180910390f35b610191610882565b60405161019e9190611b48565b60405180910390f35b6101af6108a9565b6040516101bc9190611b48565b60405180910390f35b6101cd6108b1565b6040516101da9190611b48565b60405180910390f35b6101eb6108b6565b6040516101f89190611bdb565b60405180910390f35b6102096108da565b6040516102169190611b48565b60405180910390f35b61023960048036038101906102349190611b0e565b610901565b005b61025560048036038101906102509190611b0e565b610c56565b005b610271600480360381019061026c9190611c2f565b61109a565b60405161027e9190611b48565b60405180910390f35b6102a1600480360381019061029c9190611b0e565b6110e0565b005b6102bd60048036038101906102b89190611c2f565b6113e3565b6040516102ca9190611b48565b60405180910390f35b6102db6113f8565b6040516102e89190611c7a565b60405180910390f35b61030b60048036038101906103069190611c2f565b61141c565b6040516103189190611b48565b60405180910390f35b610329611462565b6040516103369190611bdb565b60405180910390f35b61035960048036038101906103549190611c2f565b611486565b6040516103669190611b48565b60405180910390f35b61038960048036038101906103849190611b0e565b61149b565b005b6103a560048036038101906103a09190611c93565b611662565b6040516103b59493929190611ceb565b60405180910390f35b6103d860048036038101906103d39190611c93565b6116e6565b6040516103e89493929190611ceb565b60405180910390f35b61040b60048036038101906104069190611c2f565b611729565b6040516104189190611b48565b60405180910390f35b61042961176f565b6040516104369190611b48565b60405180910390f35b61045960048036038101906104549190611b0e565b611793565b005b61047560048036038101906104709190611c2f565b611ac2565b6040516104829190611b48565b60405180910390f35b5f81116104cd576040517f08c379a00000000000000000000000000000000000000000000000000000000081526004016104c490611d88565b60405180910390fd5b8060045f3373ffffffffffffffffffffffffffffffffffffffff1673ffffffffffffffffffffffffffffffffffffffff1681526020019081526020015f2054101561054d576040517f08c379a000000000000000000000000000000000000000000000000000000000815260040161054490611df0565b60405180910390fd5b5f7f000000000000000000000000000000000000000000000000000000000000000073ffffffffffffffffffffffffffffffffffffffff166318160ddd6040518163ffffffff1660e01b8152600401602060405180830381865afa1580156105b7573d5f5f3e3d5ffd5b505050506040513d601f19601f820116820180604052508101906105db9190611e22565b90505f811161061f576040517f08c379a000000000000000000000000000000000000000000000000000000000815260040161061690611e97565b60405180910390fd5b5f815f548461062e9190611ee2565b6106389190611f50565b90507f000000000000000000000000000000000000000000000000000000000000000073ffffffffffffffffffffffffffffffffffffffff16639dc29fac33856040518363ffffffff1660e01b8152600401610695929190611f8f565b5f604051808303815f87803b1580156106ac575f5ffd5b505af11580156106be573d5f5f3e3d5ffd5b505050505f7f000000000000000000000000000000000000000000000000000000000000000073ffffffffffffffffffffffffffffffffffffffff1663a9059cbb33846040518363ffffffff1660e01b815260040161071e929190611f8f565b6020604051808303815f875af115801561073a573d5f5f3e3d5ffd5b505050506040513d601f19601f8201168201806040525081019061075e9190611fe0565b9050806107a0576040517f08c379a000000000000000000000000000000000000000000000000000000000815260040161079790612055565b60405180910390fd5b8360045f3373ffffffffffffffffffffffffffffffffffffffff1673ffffffffffffffffffffffffffffffffffffffff1681526020019081526020015f205f8282546107ec9190612073565b92505081905550815f5f8282546108039190612073565b925050819055503373ffffffffffffffffffffffffffffffffffffffff167f617b9e02bbcdee3ff28ced6eebbab0245853a4219a2233766d690e521fab6040836040516108509190611b48565b60405180910390a250505050565b7f000000000000000000000000000000000000000000000000000000000000000081565b5f7f0000000000000000000000000000000000000000000000000000000000000000905090565b5f5f54905090565b5f5481565b7f000000000000000000000000000000000000000000000000000000000000000081565b5f7f0000000000000000000000000000000000000000000000000000000000000000905090565b5f8111610943576040517f08c379a000000000000000000000000000000000000000000000000000000000815260040161093a90611d88565b60405180910390fd5b8060015f3373ffffffffffffffffffffffffffffffffffffffff1673ffffffffffffffffffffffffffffffffffffffff1681526020019081526020015f205410156109c3576040517f08c379a00000000000000000000000000000000000000000000000000000000081526004016109ba906120f0565b60405180910390fd5b5f5f90505f5f90505b60035f3373ffffffffffffffffffffffffffffffffffffffff1673ffffffffffffffffffffffffffffffffffffffff1681526020019081526020015f2054811015610a8f5760025f3373ffffffffffffffffffffffffffffffffffffffff1673ffffffffffffffffffffffffffffffffffffffff1681526020019081526020015f205f8281526020019081526020015f206003015f9054906101000a900460ff1615610a8257600182610a7f919061210e565b91505b80806001019150506109cc565b505f8114610ad2576040517f08c379a0000000000000000000000000000000000000000000000000000000008152600401610ac9906121b1565b60405180910390fd5b5f7f000000000000000000000000000000000000000000000000000000000000000073ffffffffffffffffffffffffffffffffffffffff1663a9059cbb33856040518363ffffffff1660e01b8152600401610b2e929190611f8f565b6020604051808303815f875af1158015610b4a573d5f5f3e3d5ffd5b505050506040513d601f19601f82011682018060405250810190610b6e9190611fe0565b905080610bb0576040517f08c379a0000000000000000000000000000000000000000000000000000000008152600401610ba790612055565b60405180910390fd5b8260015f3373ffffffffffffffffffffffffffffffffffffffff1673ffffffffffffffffffffffffffffffffffffffff1681526020019081526020015f205f828254610bfc9190612073565b925050819055503373ffffffffffffffffffffffffffffffffffffffff167f5c13206afea3f1697f6489c2f53b5360bbc3b17527e2e941a48cb3c56d6b471984604051610c499190611b48565b60405180910390a2505050565b5f8111610c98576040517f08c379a0000000000000000000000000000000000000000000000000000000008152600401610c8f90611d88565b60405180910390fd5b5f60647f000000000000000000000000000000000000000000000000000000000000000060015f3373ffffffffffffffffffffffffffffffffffffffff1673ffffffffffffffffffffffffffffffffffffffff1681526020019081526020015f2054610d049190611ee2565b610d0e9190611f50565b905080821115610d53576040517f08c379a0000000000000000000000000000000000000000000000000000000008152600401610d4a9061223f565b60405180910390fd5b5f54821115610d97576040517f08c379a0000000000000000000000000000000000000000000000000000000008152600401610d8e906122a7565b60405180910390fd5b5f7f000000000000000000000000000000000000000000000000000000000000000073ffffffffffffffffffffffffffffffffffffffff1663a9059cbb33856040518363ffffffff1660e01b8152600401610df3929190611f8f565b6020604051808303815f875af1158015610e0f573d5f5f3e3d5ffd5b505050506040513d601f19601f82011682018060405250810190610e339190611fe0565b905080610e75576040517f08c379a0000000000000000000000000000000000000000000000000000000008152600401610e6c90612055565b60405180910390fd5b604051806080016040528042815260200184815260200160015f3373ffffffffffffffffffffffffffffffffffffffff1673ffffffffffffffffffffffffffffffffffffffff1681526020019081526020015f205481526020016001151581525060025f3373ffffffffffffffffffffffffffffffffffffffff1673ffffffffffffffffffffffffffffffffffffffff1681526020019081526020015f205f60035f3373ffffffffffffffffffffffffffffffffffffffff1673ffffffffffffffffffffffffffffffffffffffff1681526020019081526020015f205481526020019081526020015f205f820151815f015560208201518160010155604082015181600201556060820151816003015f6101000a81548160ff021916908315150217905550905050600160035f3373ffffffffffffffffffffffffffffffffffffffff1673ffffffffffffffffffffffffffffffffffffffff1681526020019081526020015f205f828254610fea919061210e565b92505081905550825f5f8282546110019190612073565b925050819055503373ffffffffffffffffffffffffffffffffffffffff167f76474c6847b9eb4086f33d530854b0857b82e6724efed16d7744b5e9c7f885eb8460015f3373ffffffffffffffffffffffffffffffffffffffff1673ffffffffffffffffffffffffffffffffffffffff1681526020019081526020015f205460405161108d9291906122c5565b60405180910390a2505050565b5f60035f8373ffffffffffffffffffffffffffffffffffffffff1673ffffffffffffffffffffffffffffffffffffffff1681526020019081526020015f20549050919050565b60035f3373ffffffffffffffffffffffffffffffffffffffff1673ffffffffffffffffffffffffffffffffffffffff1681526020019081526020015f2054811061115f576040517f08c379a000000000000000000000000000000000000000000000000000000000815260040161115690612336565b60405180910390fd5b5f60025f3373ffffffffffffffffffffffffffffffffffffffff1673ffffffffffffffffffffffffffffffffffffffff1681526020019081526020015f205f8381526020019081526020015f209050806003015f9054906101000a900460ff166111fe576040517f08c379a00000000000000000000000000000000000000000000000000000000081526004016111f59061239e565b60405180910390fd5b5f62015180825f0154426112129190612073565b61121c9190611f50565b90505f6064827f000000000000000000000000000000000000000000000000000000000000000085600101546112529190611ee2565b61125c9190611ee2565b6112669190611f50565b90505f818460010154611279919061210e565b90505f7f000000000000000000000000000000000000000000000000000000000000000073ffffffffffffffffffffffffffffffffffffffff166323b872dd3330856040518463ffffffff1660e01b81526004016112d9939291906123bc565b6020604051808303815f875af11580156112f5573d5f5f3e3d5ffd5b505050506040513d601f19601f820116820180604052508101906113199190611fe0565b90508061135b576040517f08c379a000000000000000000000000000000000000000000000000000000000815260040161135290612055565b60405180910390fd5b5f856003015f6101000a81548160ff021916908315150217905550815f5f828254611386919061210e565b925050819055503373ffffffffffffffffffffffffffffffffffffffff167ff999659e87e465092b87690107bce0970a242e4aa58409c8829d2db244b25489836040516113d39190611b48565b60405180910390a2505050505050565b6003602052805f5260405f205f915090505481565b7f000000000000000000000000000000000000000000000000000000000000000081565b5f60015f8373ffffffffffffffffffffffffffffffffffffffff1673ffffffffffffffffffffffffffffffffffffffff1681526020019081526020015f20549050919050565b7f000000000000000000000000000000000000000000000000000000000000000081565b6004602052805f5260405f205f915090505481565b5f81116114dd576040517f08c379a00000000000000000000000000000000000000000000000000000000081526004016114d490611d88565b60405180910390fd5b5f7f000000000000000000000000000000000000000000000000000000000000000073ffffffffffffffffffffffffffffffffffffffff166323b872dd3330856040518463ffffffff1660e01b815260040161153b939291906123bc565b6020604051808303815f875af1158015611557573d5f5f3e3d5ffd5b505050506040513d601f19601f8201168201806040525081019061157b9190611fe0565b9050806115bd576040517f08c379a00000000000000000000000000000000000000000000000000000000081526004016115b490612055565b60405180910390fd5b8160015f3373ffffffffffffffffffffffffffffffffffffffff1673ffffffffffffffffffffffffffffffffffffffff1681526020019081526020015f205f828254611609919061210e565b925050819055503373ffffffffffffffffffffffffffffffffffffffff167f8ef97bdec71d14bb97670eaa20efe6ded4ebd5e005d7e608d051df053422876c836040516116569190611b48565b60405180910390a25050565b5f5f5f5f5f60025f8873ffffffffffffffffffffffffffffffffffffffff1673ffffffffffffffffffffffffffffffffffffffff1681526020019081526020015f205f8781526020019081526020015f209050805f015481600101548260020154836003015f9054906101000a900460ff1694509450945094505092959194509250565b6002602052815f5260405f20602052805f5260405f205f9150915050805f015490806001015490806002015490806003015f9054906101000a900460ff16905084565b5f60045f8373ffffffffffffffffffffffffffffffffffffffff1673ffffffffffffffffffffffffffffffffffffffff1681526020019081526020015f20549050919050565b7f000000000000000000000000000000000000000000000000000000000000000081565b5f81116117d5576040517f08c379a00000000000000000000000000000000000000000000000000000000081526004016117cc90611d88565b60405180910390fd5b5f7f000000000000000000000000000000000000000000000000000000000000000073ffffffffffffffffffffffffffffffffffffffff166323b872dd3330856040518463ffffffff1660e01b8152600401611833939291906123bc565b6020604051808303815f875af115801561184f573d5f5f3e3d5ffd5b505050506040513d601f19601f820116820180604052508101906118739190611fe0565b9050806118b5576040517f08c379a00000000000000000000000000000000000000000000000000000000081526004016118ac90612055565b60405180910390fd5b5f7f000000000000000000000000000000000000000000000000000000000000000073ffffffffffffffffffffffffffffffffffffffff166318160ddd6040518163ffffffff1660e01b8152600401602060405180830381865afa15801561191f573d5f5f3e3d5ffd5b505050506040513d601f19601f820116820180604052508101906119439190611e22565b90505f5f82148061195457505f5f54145b156119615783905061197c565b5f54828561196f9190611ee2565b6119799190611f50565b90505b7f000000000000000000000000000000000000000000000000000000000000000073ffffffffffffffffffffffffffffffffffffffff166340c10f1933836040518363ffffffff1660e01b81526004016119d7929190611f8f565b5f604051808303815f87803b1580156119ee575f5ffd5b505af1158015611a00573d5f5f3e3d5ffd5b505050508060045f3373ffffffffffffffffffffffffffffffffffffffff1673ffffffffffffffffffffffffffffffffffffffff1681526020019081526020015f205f828254611a50919061210e565b92505081905550835f5f828254611a67919061210e565b925050819055503373ffffffffffffffffffffffffffffffffffffffff167fcf5da60411b079f7206b02fcc189490b77b421397906cfee07599fbf8f5e93ce85604051611ab49190611b48565b60405180910390a250505050565b6001602052805f5260405f205f915090505481565b5f5ffd5b5f819050919050565b611aed81611adb565b8114611af7575f5ffd5b50565b5f81359050611b0881611ae4565b92915050565b5f60208284031215611b2357611b22611ad7565b5b5f611b3084828501611afa565b91505092915050565b611b4281611adb565b82525050565b5f602082019050611b5b5f830184611b39565b92915050565b5f73ffffffffffffffffffffffffffffffffffffffff82169050919050565b5f819050919050565b5f611ba3611b9e611b9984611b61565b611b80565b611b61565b9050919050565b5f611bb482611b89565b9050919050565b5f611bc582611baa565b9050919050565b611bd581611bbb565b82525050565b5f602082019050611bee5f830184611bcc565b92915050565b5f611bfe82611b61565b9050919050565b611c0e81611bf4565b8114611c18575f5ffd5b50565b5f81359050611c2981611c05565b92915050565b5f60208284031215611c4457611c43611ad7565b5b5f611c5184828501611c1b565b91505092915050565b5f611c6482611baa565b9050919050565b611c7481611c5a565b82525050565b5f602082019050611c8d5f830184611c6b565b92915050565b5f5f60408385031215611ca957611ca8611ad7565b5b5f611cb685828601611c1b565b9250506020611cc785828601611afa565b9150509250929050565b5f8115159050919050565b611ce581611cd1565b82525050565b5f608082019050611cfe5f830187611b39565b611d0b6020830186611b39565b611d186040830185611b39565b611d256060830184611cdc565b95945050505050565b5f82825260208201905092915050565b7f416d6f756e74206d7573742062652067726561746572207468616e20300000005f82015250565b5f611d72601d83611d2e565b9150611d7d82611d3e565b602082019050919050565b5f6020820190508181035f830152611d9f81611d66565b9050919050565b7f496e73756666696369656e74206c6971756964697479000000000000000000005f82015250565b5f611dda601683611d2e565b9150611de582611da6565b602082019050919050565b5f6020820190508181035f830152611e0781611dce565b9050919050565b5f81519050611e1c81611ae4565b92915050565b5f60208284031215611e3757611e36611ad7565b5b5f611e4484828501611e0e565b91505092915050565b7f4e6f206c697175696469747920696e20706f6f6c0000000000000000000000005f82015250565b5f611e81601483611d2e565b9150611e8c82611e4d565b602082019050919050565b5f6020820190508181035f830152611eae81611e75565b9050919050565b7f4e487b71000000000000000000000000000000000000000000000000000000005f52601160045260245ffd5b5f611eec82611adb565b9150611ef783611adb565b9250828202611f0581611adb565b91508282048414831517611f1c57611f1b611eb5565b5b5092915050565b7f4e487b71000000000000000000000000000000000000000000000000000000005f52601260045260245ffd5b5f611f5a82611adb565b9150611f6583611adb565b925082611f7557611f74611f23565b5b828204905092915050565b611f8981611bf4565b82525050565b5f604082019050611fa25f830185611f80565b611faf6020830184611b39565b9392505050565b611fbf81611cd1565b8114611fc9575f5ffd5b50565b5f81519050611fda81611fb6565b92915050565b5f60208284031215611ff557611ff4611ad7565b5b5f61200284828501611fcc565b91505092915050565b7f5472616e73666572206661696c656400000000000000000000000000000000005f82015250565b5f61203f600f83611d2e565b915061204a8261200b565b602082019050919050565b5f6020820190508181035f83015261206c81612033565b9050919050565b5f61207d82611adb565b915061208883611adb565b92508282039050818111156120a05761209f611eb5565b5b92915050565b7f496e73756666696369656e7420636f6c6c61746572616c0000000000000000005f82015250565b5f6120da601783611d2e565b91506120e5826120a6565b602082019050919050565b5f6020820190508181035f830152612107816120ce565b9050919050565b5f61211882611adb565b915061212383611adb565b925082820190508082111561213b5761213a611eb5565b5b92915050565b7f43616e6e6f74207769746864726177207769746820616374697665206c6f616e5f8201527f7300000000000000000000000000000000000000000000000000000000000000602082015250565b5f61219b602183611d2e565b91506121a682612141565b604082019050919050565b5f6020820190508181035f8301526121c88161218f565b9050919050565b7f45786365656473206d6178696d756d206c6f616e20616d6f756e7420626173655f8201527f64206f6e20636f6c6c61746572616c0000000000000000000000000000000000602082015250565b5f612229602f83611d2e565b9150612234826121cf565b604082019050919050565b5f6020820190508181035f8301526122568161221d565b9050919050565b7f4e6f7420656e6f756768206c697175696469747920696e20706f6f6c000000005f82015250565b5f612291601c83611d2e565b915061229c8261225d565b602082019050919050565b5f6020820190508181035f8301526122be81612285565b9050919050565b5f6040820190506122d85f830185611b39565b6122e56020830184611b39565b9392505050565b7f496e76616c6964206c6f616e20494400000000000000000000000000000000005f82015250565b5f612320600f83611d2e565b915061232b826122ec565b602082019050919050565b5f6020820190508181035f83015261234d81612314565b9050919050565b7f4c6f616e20616c726561647920726570616964000000000000000000000000005f82015250565b5f612388601383611d2e565b915061239382612354565b602082019050919050565b5f6020820190508181035f8301526123b58161237c565b9050919050565b5f6060820190506123cf5f830186611f80565b6123dc6020830185611f80565b6123e96040830184611b39565b94935050505056fea2646970667358221220fcbbd58a4656b98b19e077e69b2b7dad63b25a7c9565d2d0bd25ad26453ff43064736f6c634300081d0033",
    "linkReferences": {}
  },
  "methodIdentifiers": {
    "depositCollateral(uint256)": "bad4a01f",
    "getCollateralFactor()": "35392b71",
    "getInterestRate()": "5257b566",
    "getTotalLiquidity()": "35c7e925",
    "getUserCollateral(address)": "b6f7132f",
    "getUserLiquidity(address)": "dbbdd935",
    "getUserLoan(address,uint256)": "d5c05940",
    "getUserLoanCount(address)": "aa3b6867",
    "i_collateralFactor()": "2d2536e7",
    "i_collateralToken()": "b71a1bfc",
    "i_interestRate()": "e32b6d8f",
    "i_lendToken()": "4ffd695e",
    "i_lpToken()": "b2b0b0bd",
    "provideLiquidity(uint256)": "eb521a4c",
    "repayLoan(uint256)": "ab7b1c89",
    "s_totalLiquidity()": "4482fa97",
    "takeLoan(uint256)": "8c803fc2",
    "userCollateral(address)": "f69f1e4a",
    "userLiquidity(address)": "ba4c28c3",
    "userLoanCount(address)": "af85e1d5",
    "userLoans(address,uint256)": "d8bad5bd",
    "withdrawCollateral(uint256)": "6112fe2e",
    "withdrawLiquidity(uint256)": "0a861f2a"
  },
  "id": 26
}